{
  "_format": "hh-sol-artifact-1",
  "contractName": "Staking",
  "sourceName": "contracts/Staking.sol",
  "abi": [
    {
      "inputs": [
        {
          "internalType": "contract MuriaticToken",
          "name": "_token",
          "type": "address"
        }
      ],
      "stateMutability": "nonpayable",
      "type": "constructor"
    },
    {
      "anonymous": false,
      "inputs": [
        {
          "indexed": true,
          "internalType": "address",
          "name": "user",
          "type": "address"
        },
        {
          "indexed": false,
          "internalType": "uint256",
          "name": "amount",
          "type": "uint256"
        }
      ],
      "name": "RewardsClaimed",
      "type": "event"
    },
    {
      "anonymous": false,
      "inputs": [
        {
          "indexed": true,
          "internalType": "address",
          "name": "user",
          "type": "address"
        },
        {
          "indexed": false,
          "internalType": "uint256",
          "name": "amount",
          "type": "uint256"
        }
      ],
      "name": "Staked",
      "type": "event"
    },
    {
      "anonymous": false,
      "inputs": [
        {
          "indexed": true,
          "internalType": "address",
          "name": "user",
          "type": "address"
        },
        {
          "indexed": false,
          "internalType": "uint256",
          "name": "amount",
          "type": "uint256"
        }
      ],
      "name": "UnStaked",
      "type": "event"
    },
    {
      "inputs": [
        {
          "internalType": "address",
          "name": "_user",
          "type": "address"
        }
      ],
      "name": "calculateRewards",
      "outputs": [
        {
          "internalType": "uint256",
          "name": "",
          "type": "uint256"
        }
      ],
      "stateMutability": "view",
      "type": "function"
    },
    {
      "inputs": [],
      "name": "claimRewards",
      "outputs": [],
      "stateMutability": "nonpayable",
      "type": "function"
    },
    {
      "inputs": [
        {
          "internalType": "address",
          "name": "",
          "type": "address"
        }
      ],
      "name": "lastUpdatedTime",
      "outputs": [
        {
          "internalType": "uint256",
          "name": "",
          "type": "uint256"
        }
      ],
      "stateMutability": "view",
      "type": "function"
    },
    {
      "inputs": [
        {
          "internalType": "address",
          "name": "",
          "type": "address"
        }
      ],
      "name": "rewardDebt",
      "outputs": [
        {
          "internalType": "uint256",
          "name": "",
          "type": "uint256"
        }
      ],
      "stateMutability": "view",
      "type": "function"
    },
    {
      "inputs": [],
      "name": "rewardRate",
      "outputs": [
        {
          "internalType": "uint256",
          "name": "",
          "type": "uint256"
        }
      ],
      "stateMutability": "view",
      "type": "function"
    },
    {
      "inputs": [
        {
          "internalType": "uint256",
          "name": "_amount",
          "type": "uint256"
        }
      ],
      "name": "stake",
      "outputs": [],
      "stateMutability": "nonpayable",
      "type": "function"
    },
    {
      "inputs": [
        {
          "internalType": "address",
          "name": "",
          "type": "address"
        }
      ],
      "name": "stakedAmount",
      "outputs": [
        {
          "internalType": "uint256",
          "name": "",
          "type": "uint256"
        }
      ],
      "stateMutability": "view",
      "type": "function"
    },
    {
      "inputs": [],
      "name": "token",
      "outputs": [
        {
          "internalType": "contract MuriaticToken",
          "name": "",
          "type": "address"
        }
      ],
      "stateMutability": "view",
      "type": "function"
    },
    {
      "inputs": [
        {
          "internalType": "uint256",
          "name": "_amount",
          "type": "uint256"
        }
      ],
      "name": "unstake",
      "outputs": [],
      "stateMutability": "nonpayable",
      "type": "function"
    }
  ],
  "bytecode": "0x6080604052606460015534801561001557600080fd5b506040516110b83803806110b8833981810160405281019061003791906100f2565b806000806101000a81548173ffffffffffffffffffffffffffffffffffffffff021916908373ffffffffffffffffffffffffffffffffffffffff1602179055505061011f565b600080fd5b600073ffffffffffffffffffffffffffffffffffffffff82169050919050565b60006100ad82610082565b9050919050565b60006100bf826100a2565b9050919050565b6100cf816100b4565b81146100da57600080fd5b50565b6000815190506100ec816100c6565b92915050565b6000602082840312156101085761010761007d565b5b6000610116848285016100dd565b91505092915050565b610f8a8061012e6000396000f3fe608060405234801561001057600080fd5b50600436106100935760003560e01c80637b0a47ee116100665780637b0a47ee1461011e5780638f427ff21461013c578063a694fc3a1461016c578063f993185514610188578063fc0c546a146101b857610093565b80632e17de7814610098578063372500ab146100b45780635873eb9b146100be57806364ab8675146100ee575b600080fd5b6100b260048036038101906100ad9190610a96565b6101d6565b005b6100bc610446565b005b6100d860048036038101906100d39190610b21565b610659565b6040516100e59190610b5d565b60405180910390f35b61010860048036038101906101039190610b21565b610671565b6040516101159190610b5d565b60405180910390f35b610126610785565b6040516101339190610b5d565b60405180910390f35b61015660048036038101906101519190610b21565b61078b565b6040516101639190610b5d565b60405180910390f35b61018660048036038101906101819190610a96565b6107a3565b005b6101a2600480360381019061019d9190610b21565b610a1f565b6040516101af9190610b5d565b60405180910390f35b6101c0610a37565b6040516101cd9190610bd7565b60405180910390f35b80600260003373ffffffffffffffffffffffffffffffffffffffff1673ffffffffffffffffffffffffffffffffffffffff168152602001908152602001600020541015610258576040517f08c379a000000000000000000000000000000000000000000000000000000000815260040161024f90610c4f565b60405180910390fd5b600061026333610671565b905080600360003373ffffffffffffffffffffffffffffffffffffffff1673ffffffffffffffffffffffffffffffffffffffff16815260200190815260200160002060008282546102b49190610c9e565b9250508190555081600260003373ffffffffffffffffffffffffffffffffffffffff1673ffffffffffffffffffffffffffffffffffffffff168152602001908152602001600020600082825461030a9190610cd2565b9250508190555042600460003373ffffffffffffffffffffffffffffffffffffffff1673ffffffffffffffffffffffffffffffffffffffff1681526020019081526020016000208190555060008054906101000a900473ffffffffffffffffffffffffffffffffffffffff1673ffffffffffffffffffffffffffffffffffffffff1663a9059cbb33846040518363ffffffff1660e01b81526004016103b0929190610d15565b6020604051808303816000875af11580156103cf573d6000803e3d6000fd5b505050506040513d601f19601f820116820180604052508101906103f39190610d76565b503373ffffffffffffffffffffffffffffffffffffffff167f79d3df6837cc49ff0e09fd3258e6e45594e0703445bb06825e9d75156eaee8f08360405161043a9190610b5d565b60405180910390a25050565b6000600360003373ffffffffffffffffffffffffffffffffffffffff1673ffffffffffffffffffffffffffffffffffffffff1681526020019081526020016000205461049133610671565b61049b9190610c9e565b9050600081116104e0576040517f08c379a00000000000000000000000000000000000000000000000000000000081526004016104d790610def565b60405180910390fd5b6000600360003373ffffffffffffffffffffffffffffffffffffffff1673ffffffffffffffffffffffffffffffffffffffff1681526020019081526020016000208190555042600460003373ffffffffffffffffffffffffffffffffffffffff1673ffffffffffffffffffffffffffffffffffffffff1681526020019081526020016000208190555060008054906101000a900473ffffffffffffffffffffffffffffffffffffffff1673ffffffffffffffffffffffffffffffffffffffff1663a9059cbb33836040518363ffffffff1660e01b81526004016105c4929190610d15565b6020604051808303816000875af11580156105e3573d6000803e3d6000fd5b505050506040513d601f19601f820116820180604052508101906106079190610d76565b503373ffffffffffffffffffffffffffffffffffffffff167ffc30cddea38e2bf4d6ea7d3f9ed3b6ad7f176419f4963bd81318067a4aee73fe8260405161064e9190610b5d565b60405180910390a250565b60036020528060005260406000206000915090505481565b600080600260008473ffffffffffffffffffffffffffffffffffffffff1673ffffffffffffffffffffffffffffffffffffffff16815260200190815260200160002054036106c25760009050610780565b6000600460008473ffffffffffffffffffffffffffffffffffffffff1673ffffffffffffffffffffffffffffffffffffffff168152602001908152602001600020544261070f9190610cd2565b9050670de0b6b3a764000081600154600260008773ffffffffffffffffffffffffffffffffffffffff1673ffffffffffffffffffffffffffffffffffffffff168152602001908152602001600020546107689190610e0f565b6107729190610e0f565b61077c9190610e80565b9150505b919050565b60015481565b60046020528060005260406000206000915090505481565b600081116107e6576040517f08c379a00000000000000000000000000000000000000000000000000000000081526004016107dd90610efd565b60405180910390fd5b6000600260003373ffffffffffffffffffffffffffffffffffffffff1673ffffffffffffffffffffffffffffffffffffffff16815260200190815260200160002054111561089357600061083933610671565b905080600360003373ffffffffffffffffffffffffffffffffffffffff1673ffffffffffffffffffffffffffffffffffffffff168152602001908152602001600020600082825461088a9190610c9e565b92505081905550505b60008054906101000a900473ffffffffffffffffffffffffffffffffffffffff1673ffffffffffffffffffffffffffffffffffffffff166323b872dd3330846040518463ffffffff1660e01b81526004016108f093929190610f1d565b6020604051808303816000875af115801561090f573d6000803e3d6000fd5b505050506040513d601f19601f820116820180604052508101906109339190610d76565b5080600260003373ffffffffffffffffffffffffffffffffffffffff1673ffffffffffffffffffffffffffffffffffffffff16815260200190815260200160002060008282546109839190610c9e565b9250508190555042600460003373ffffffffffffffffffffffffffffffffffffffff1673ffffffffffffffffffffffffffffffffffffffff168152602001908152602001600020819055503373ffffffffffffffffffffffffffffffffffffffff167f9e71bc8eea02a63969f509818f2dafb9254532904319f9dbda79b67bd34a5f3d82604051610a149190610b5d565b60405180910390a250565b60026020528060005260406000206000915090505481565b60008054906101000a900473ffffffffffffffffffffffffffffffffffffffff1681565b600080fd5b6000819050919050565b610a7381610a60565b8114610a7e57600080fd5b50565b600081359050610a9081610a6a565b92915050565b600060208284031215610aac57610aab610a5b565b5b6000610aba84828501610a81565b91505092915050565b600073ffffffffffffffffffffffffffffffffffffffff82169050919050565b6000610aee82610ac3565b9050919050565b610afe81610ae3565b8114610b0957600080fd5b50565b600081359050610b1b81610af5565b92915050565b600060208284031215610b3757610b36610a5b565b5b6000610b4584828501610b0c565b91505092915050565b610b5781610a60565b82525050565b6000602082019050610b726000830184610b4e565b92915050565b6000819050919050565b6000610b9d610b98610b9384610ac3565b610b78565b610ac3565b9050919050565b6000610baf82610b82565b9050919050565b6000610bc182610ba4565b9050919050565b610bd181610bb6565b82525050565b6000602082019050610bec6000830184610bc8565b92915050565b600082825260208201905092915050565b7f496e73756666696369656e74207374616b656420616d6f756e74000000000000600082015250565b6000610c39601a83610bf2565b9150610c4482610c03565b602082019050919050565b60006020820190508181036000830152610c6881610c2c565b9050919050565b7f4e487b7100000000000000000000000000000000000000000000000000000000600052601160045260246000fd5b6000610ca982610a60565b9150610cb483610a60565b9250828201905080821115610ccc57610ccb610c6f565b5b92915050565b6000610cdd82610a60565b9150610ce883610a60565b9250828203905081811115610d0057610cff610c6f565b5b92915050565b610d0f81610ae3565b82525050565b6000604082019050610d2a6000830185610d06565b610d376020830184610b4e565b9392505050565b60008115159050919050565b610d5381610d3e565b8114610d5e57600080fd5b50565b600081519050610d7081610d4a565b92915050565b600060208284031215610d8c57610d8b610a5b565b5b6000610d9a84828501610d61565b91505092915050565b7f4e6f207265776172647320746f20636c61696d00000000000000000000000000600082015250565b6000610dd9601383610bf2565b9150610de482610da3565b602082019050919050565b60006020820190508181036000830152610e0881610dcc565b9050919050565b6000610e1a82610a60565b9150610e2583610a60565b9250828202610e3381610a60565b91508282048414831517610e4a57610e49610c6f565b5b5092915050565b7f4e487b7100000000000000000000000000000000000000000000000000000000600052601260045260246000fd5b6000610e8b82610a60565b9150610e9683610a60565b925082610ea657610ea5610e51565b5b828204905092915050565b7f43616e6e6f74207374616b652030000000000000000000000000000000000000600082015250565b6000610ee7600e83610bf2565b9150610ef282610eb1565b602082019050919050565b60006020820190508181036000830152610f1681610eda565b9050919050565b6000606082019050610f326000830186610d06565b610f3f6020830185610d06565b610f4c6040830184610b4e565b94935050505056fea2646970667358221220dbd606c2b4bd9104bb00c5f1a69eb4bb960125b1852baebbb463c84f2afc4e1f64736f6c634300081c0033",
  "linkReferences": {},
  "deployedLinkReferences": {}
}